:020000040800F2
:10000000005000205D210008451700084B1700082C
:1000100051170008571700085D170008000000007E
:10002000000000000000000000000000631700084E
:100030006F170008000000007B17000887170008F2
:10004000A5210008A5210008A5210008A521000878
:10005000A5210008A5210008A5210008A521000868
:10006000A5210008A5210008A5210008A521000858
:10007000A5210008A5210008A5210008A521000848
:10008000A5210008A5210008A5210008A521000838
:10009000A5210008A5210008A5210008A521000828
:1000A000A5210008A5210008A5210008A521000818
:1000B00095170008A5210008A5210008A521000822
:1000C000A5210008A5210008A5210008A5210008F8
:1000D000A5210008A5210008A5210008A5210008E8
:1000E000A9170008A5210008A521000800000000AC
:1000F0000000000000000000000000000000000000
:0C01000000000000000000005FF808F1A3
:1001100010B5054C237833B9044B13B10448AFF341
:1001200000800123237010BD440100200000000066
:10013000284C000808B5034B1BB103490348AFF333
:10014000008008BD0000000048010020284C000885
:1001500070B54FF0FF0C4CF4E06C1CEA11541DBF5D
:100160001CEA135594EA0C0F95EA0C0F00F0DEF828
:100170002C4481EA030621EA4C5123EA4C5350EA0D
:10018000013518BF52EA033541F4801143F480135E
:1001900038D0A0FB02CE4FF00005E1FB02E506F0EF
:1001A0000042E0FB03E54FF00006E1FB03569CF044
:1001B000000F18BF4EF0010EA4F1FF04B6F5007F4A
:1001C00064F5407404D25FEA4E0E6D4146EB0606BC
:1001D00042EAC62141EA55514FEAC52040EA5E5045
:1001E0004FEACE2EB4F1FD0C88BFBCF5E06F1ED8EF
:1001F000BEF1004F08BF5FEA500E50F1000041EB26
:10020000045170BD06F0004646EA010140EA0200D2
:1002100081EA0301B4EB5C04C2BFD4EB0C0541EAF4
:10022000045170BD41F480114FF0000E013C00F309
:10023000AB8014F1360FDEBF002001F0004170BD2D
:10024000C4F10004203C35DA0C341BDC04F1140446
:10025000C4F1200500FA05F320FA04F001FA05F2D2
:1002600040EA020001F0004221F0004110EBD3709F
:1002700021FA04F642EB06015EEA430E08BF20EACB
:10028000D37070BDC4F10C04C4F1200500FA04F36E
:1002900020FA05F001FA04F240EA020001F0004100
:1002A00010EBD37041F100015EEA430E08BF20EA73
:1002B000D37070BDC4F1200500FA05F24EEA020EBB
:1002C00020FA04F301FA05F243EA020321FA04F0EA
:1002D00001F0004121FA04F220EA020000EBD370A1
:1002E0005EEA430E08BF20EAD37070BD94F0000FA1
:1002F0000FD101F00046400041EB010111F4801FD5
:1003000008BF013CF7D041EA060195F0000F18BF85
:10031000704703F00046520043EB030313F4801FC1
:1003200008BF013DF7D043EA0603704794EA0C0F7B
:100330000CEA135518BF95EA0C0F0CD050EA410691
:1003400018BF52EA4306D1D181EA030101F000410E
:100350004FF0000070BD50EA410606BF1046194636
:1003600052EA430619D094EA0C0F02D150EA013642
:1003700013D195EA0C0F05D152EA03361CBF104683
:1003800019460AD181EA030101F0004141F0FE4122
:1003900041F470014FF0000070BD41F0FE4141F4A6
:1003A000780170BD81F0004102E000BF83F000439E
:1003B00030B54FEA41044FEA430594EA050F08BF00
:1003C00090EA020F1FBF54EA000C55EA020C7FEAC4
:1003D000645C7FEA655C00F0E2804FEA5454D4EB41
:1003E0005555B8BF6D420CDD2C4480EA020281EA0B
:1003F000030382EA000083EA010180EA020281EA43
:100400000303362D88BF30BD11F0004F4FEA013194
:100410004FF4801C4CEA113102D0404261EB4101A3
:1004200013F0004F4FEA03334CEA133302D0524229
:1004300063EB430394EA050F00F0A780A4F10104E5
:10044000D5F1200E0DDB02FA0EFC22FA05F280181F
:1004500041F1000103FA0EF2801843FA05F3594105
:100460000EE0A5F120050EF1200E012A03FA0EFC84
:1004700028BF4CF0020C43FA05F3C01851EBE371AE
:1004800001F0004507D54FF0000EDCF1000C7EEBCB
:1004900000006EEB0101B1F5801F1BD3B1F5001F09
:1004A0000CD349085FEA30004FEA3C0C04F1010428
:1004B0004FEA445212F5800F80F09A80BCF1004F51
:1004C00008BF5FEA500C50F1000041EB045141EAD3
:1004D000050130BD5FEA4C0C404141EB0101013C9C
:1004E00028BFB1F5801FE9D291F0000F04BF01468B
:1004F0000020B1FA81F308BF2033A3F10B03B3F15D
:1005000020020CDA0C3208DD02F1140CC2F10C02EC
:1005100001FA0CF021FA02F10CE002F11402D8BF4A
:10052000C2F1200C01FA02F120FA0CFCDCBF41EA16
:100530000C019040E41AA2BF01EB0451294330BDE5
:100540006FEA04041F3C1CDA0C340EDC04F11404C2
:10055000C4F1200220FA04F001FA02F340EA030099
:1005600021FA04F345EA030130BDC4F10C04C4F1DF
:10057000200220FA02F001FA04F340EA03002946BF
:1005800030BD21FA04F0294630BD94F0000F83F409
:10059000801306BF81F480110134013D4EE77FEAEC
:1005A000645C18BF7FEA655C29D094EA050F08BF38
:1005B00090EA020F05D054EA000C04BF1946104619
:1005C00030BD91EA030F1EBF0021002030BD5FEA5D
:1005D000545C05D14000494128BF41F0004130BD85
:1005E00014F580043CBF01F5801130BD01F00045D9
:1005F00045F0FE4141F470014FF0000030BD7FEA4C
:10060000645C1ABF194610467FEA655C1CBF0B4646
:10061000024650EA013406BF52EA033591EA030F5D
:1006200041F4002130BD00BF90F0000F04BF002155
:10063000704730B54FF4806404F132044FF0000588
:100640004FF0000150E700BF90F0000F04BF002101
:10065000704730B54FF4806404F1320410F0004567
:1006600048BF40424FF000013EE700BF42004FEA62
:10067000E2014FEA31014FEA02701FBF12F07F43DF
:1006800093F07F4F81F06051704732F07F4208BF96
:10069000704793F07F4F04BF41F40021704730B59D
:1006A0004FF4607401F0004521F000411CE700BFE9
:1006B00050EA010208BF704730B54FF000050AE06C
:1006C00050EA010208BF704730B511F0004502D56D
:1006D000404261EB41014FF4806404F132045FEA6F
:1006E000915C3FF4D8AE4FF003025FEADC0C18BF18
:1006F00003325FEADC0C18BF033202EBDC02C2F10A
:10070000200300FA03FC20FA02F001FA03FE40EA9B
:100710000E0021FA02F11444BDE600BF4FEA410287
:1007200012F5001215D211D56FF47873B3EB625243
:1007300012D94FEAC12343F0004343EA505311F06A
:10074000004F23FA02F018BF404270474FF00000FC
:10075000704750EA013005D111F0004008BF6FF03A
:10076000004070474FF00000704700BF4A0011D2B0
:1007700012F5001211D20DD56FF47873B3EB6252FB
:100780000ED44FEAC12343F0004343EA505323FA07
:1007900002F070474FF00000704750EA013002D17C
:1007A0004FF0FF3070474FF00000704780B483B0C7
:1007B00000AF7860094A7B6852F82330002B06D0DE
:1007C000064A7B68002142F82310012300E0002341
:1007D00018460C37BD4680BC704700BF6001002042
:1007E00080B483B000AF7860044A7B68012142F88E
:1007F000231000BF0C37BD4680BC7047600100204D
:1008000080B582B000AF7860374A7B6852F8232009
:1008100036497B6841F82320354A7B6852F823200B
:1008200031497B6841F82320324A7B6852F8232003
:1008300031497B6831F813301946104601F0A8FFA2
:10084000034619462A4A7B6842F82310274A7B68E8
:1008500052F8232024497B6851F823309A423FD133
:10086000214A7B6852F8232021497B6851F82330C4
:100870009A4235D1214A7B6852F823201C497B6873
:1008800051F823309A4217D0194A7B6852F8232036
:100890001A497B6841F82320154A7B6852F82330B7
:1008A000002B1DD17868FFF79BFF154A7B684FF43A
:1008B000FA7142F8231013E0114A7B6852F8233092
:1008C0005A1E0F497B6841F823200D4A7B6852F875
:1008D0002330002B04DC094A7B68012142F82310F5
:1008E00000BF0837BD4680BD28000020180000204A
:1008F00038000020000000201000002048000020E8
:100900005800002080B582B000AF78600B4B1B68A8
:1009100000225A637B68172B04D14FF4FA6104203C
:1009200000F05CFE7B68162B04D14FF47A71042032
:1009300000F054FE00BF0837BD4680BD18050020FA
:1009400080B483B000AF78607B68012B02D1054B87
:100950001B6801E0044B1B6818460C37BD4680BC81
:10096000704700BFBC000020B400002080B582B0FA
:1009700000AF7860634A7B6852F82330013B162B46
:1009800000F2B58001A252F823F000BFE909000887
:10099000EF0A0008EF0A0008EF0A0008EF0A000853
:1009A000EF0A0008EF0A0008EF0A0008EF0A000843
:1009B000EF0A0008EF0A0008E70A0008EF0A00083B
:1009C000EF0A0008EF0A0008EF0A0008EF0A000823
:1009D000EF0A0008EF0A0008EF0A0008210A0008E1
:1009E000630A0008AD0A00080C21786801F050F88D
:1009F000454B41F288321A60444A7B6852F8232002
:100A000040497B6841F823207868FFF799FF034647
:100A1000642202FB03F31946786800F0DFFD6DE005
:100A20001521786801F034F8374B41F288321A60AA
:100A3000374A7B6852F82330002B5AD0354B1B685D
:100A40000D2B56D02F4A7B68172142F82310324BCA
:100A50001B68642202FB03F31946786800F0BEFDB0
:100A600047E07B68022B04D11721786801F010F869
:100A700003E01621786801F00BF8254A7B6852F8EC
:100A80002330002B37D0234B1B680D2B33D01D4A4E
:100A90007B68152142F82310204B1B68642202FB5F
:100AA00003F31946786800F099FD24E0172178686F
:100AB00000F0EEFF164A7B6852F82330002B1CD062
:100AC000144B1B680D2B18D00E4A7B68162142F878
:100AD0002310134B1B68642202FB03F3194678684A
:100AE00000F07CFD09E01520FFF70CFF06E000BFD9
:100AF00004E000BF02E000BF00E000BF00BF083715
:100B0000BD4680BDA0000020C0000020680000207D
:100B1000B4040020AC000020BC000020B400002081
:100B2000B800002080B483B000AF7860134A7B68BF
:100B300052F823305A1C11497B6841F823207B6806
:100B400001339A000D497B6851F823309A4205DC45
:100B50007B689A0009497B6841F82320074A7B6833
:100B600052F82330064A52F8232006497B6841F8A0
:100B7000232000BF0C37BD4680BC70479400002086
:100B800074000020A000002080B483B000AF786023
:100B9000144A7B6852F823305A1E12497B6841F888
:100BA0002320104A7B6852F823207B689B009A42DE
:100BB00007DA7B6801339B005A1E0A497B6841F8BB
:100BC0002320084A7B6852F82330074A52F8232032
:100BD00006497B6841F8232000BF0C37BD4680BC26
:100BE000704700BF9400002074000020A000002087
:100BF00080B586B004AF786039600023029300238B
:100C0000019300230093002300223968786801F0E3
:100C100063F800BF0837BD4680BD000080B584B0D2
:100C200000AFF860B9607A60B968F868FFF7E0FF74
:100C3000124ABB681360124A7B681360104A7B68D3
:100C400053600F4A7B6893600C21002000F020FF66
:100C50000C21012000F01CFF0C21022000F018FFE5
:100C6000084AFB681360084A7B6813601921032057
:100C700000F0B4FC00BF1037BD4680BD70010020FD
:100C8000A0000020AC000020B000002080B582B0A1
:100C900000AF78600A4B1B680133094A1360084BA8
:100CA0001B68642B02D1064B01221A60044B1B689F
:100CB00019467868FFF79CFF00BF0837BD4680BD26
:100CC0007001002080B582B000AF786079680020A4
:100CD00000F08AFF7968012000F086FF7968022021
:100CE00000F082FF1921032000F078FC00BF0837D4
:100CF000BD4680BDB0B584B004AF204B1A68204B10
:100D000083FB02135911D317CB1A642101FB03F3A0
:100D1000D31A002B2ED1194B5A68194B83FB02139F
:100D20005911D317CB1A642101FB03F3D31A002BFB
:100D300020D1124B1B68124A82FB03125211DB179F
:100D4000D01A0E4B5B680E4A82FB03125211DB175E
:100D5000D41A0C4B1D680B4B5B680A4A92680A490F
:100D600009680291019200932B46224601462120F8
:100D700000F0B2FF00BFBD46B0BD00BF9C04002024
:100D80001F85EB51A0000020B000002080B485B08A
:100D900000AF78601E4B1A681E4B1B681344FB6043
:100DA0007B68172B1FD07B68172B2CDC7B68152BDF
:100DB00003D07B68162B0BD025E0FB68152B1DD0CC
:100DC000154B1A68134B1B68D31A114A136015E0B0
:100DD000FB68152B14D00E4B1A680E4B1B6813447E
:100DE0000D4A13600CE0FB68152B0BD0084B1A68FA
:100DF000084B1B681344084A136003E000BF02E07D
:100E000000BF00E000BF00BF1437BD4680BC704784
:100E1000BC000020B8000020B400002080B584B0E1
:100E200004AF9B4B1B680B3B0C2B00F2238101A2F0
:100E300052F823F0690E000875100008B10E000882
:100E4000751000087510000875100008751000086E
:100E5000751000087510000875100008530F000881
:100E6000B50F000817100008FFF744FF0020FFF738
:100E70009DFC0346002B00F0FF80012200210D2085
:100E8000FFF7CCFE834B1B68834A52F82320814B2B
:100E90005B68814951F823300021029100210191C2
:100EA00000931346002200210D2000F015FFE3E01F
:100EB0000020FFF77BFC0346002B06D0774B1B6816
:100EC0000C2219461520FFF7A9FE0120FFF76EFC42
:100ED0000346002B1AD00020FFF724FE0120FFF765
:100EE00021FE6C4B1B686C4A52F82320694B5B68EF
:100EF000694951F8233000210291002101910093AA
:100F00001346002200210D2000F0E6FE0220FFF72C
:100F10004DFC0346002B00F0B1800020FFF734FEAB
:100F20000120FFF731FE5B4B1B685B4A52F8232020
:100F3000584B5B68584951F8233000210291002139
:100F4000019100931346002200210D2000F0C4FE01
:100F500094E00020FFF72AFC0346002B06D0504BFC
:100F60001B680C2219461620FFF758FE0120FFF7D8
:100F70001DFC0346002B02D01520FFF787FE022040
:100F8000FFF714FC0346002B0CD0464B1B68434A6A
:100F900013601520FFF7FAFE424B1B6819461F200D
:100FA000FFF726FE404BDB68002B69D01520FFF7CA
:100FB00089FE65E00020FFF7F9FB0346002B06D011
:100FC0003A4B1B680C2219461720FFF727FE012019
:100FD000FFF7ECFB0346002B02D01620FFF756FE6E
:100FE0000220FFF7E3FB0346002B0CD02D4B1B68C0
:100FF0002B4A13601620FFF7C9FE2A4B1B681946BF
:101000001F20FFF7F5FD284BDB68002B3AD0162098
:10101000FFF758FE36E00020FFF7C8FB0346002B21
:1010200004D0012200210B20FFF7F8FD0120FFF77B
:10103000BDFB0346002B02D01720FFF727FE02203E
:10104000FFF7B4FB0346002B0CD0164B1B68174A66
:1010500013601720FFF79AFE124B1B6819461F20DA
:10106000FFF7C6FD104BDB68002B0DD01720FFF7F4
:1010700029FE09E000BF08E000BF06E000BF04E071
:1010800000BF02E000BF00E000BF00BFBD4680BD62
:10109000AC0000209400002074000020B400002068
:1010A000B800002070010020B4040020BC00002023
:1010B00080B582B000AF78607B68012B0AD10B4B02
:1010C0001B681946022000F089FA094B1B68084A80
:1010D000936006E0064B0C229A600C21022000F07F
:1010E000D7FC00BF0837BD4680BD00BF9C04002070
:1010F000A00000200000000098B500AF804B1B68E6
:101100000C2B21D00C2B00F3F080012B02D00B2BE9
:1011100063D0EAE07B4B1B68012B08D1794B1B683D
:101120001846FFF7C5FF764B0B221A6007E0754B98
:101130001B681846FFF7BCFF714B0C221A60642134
:10114000052000F04BFAD5E06F4B1A6813469B0060
:101150001A446E4B1B68DA626B4B1A6813469B008D
:1011600013441A46694BDA60684B1B6800225A63C5
:10117000654B41F288321A600320FFF717FB0346E4
:10118000002B00F0B480624B1B680B2B40F0AF804B
:101190000120FFF78DFF5F4B1A685F4B1B681344FC
:1011A000642202FB03F35D4A82FB0312DB17D31AAE
:1011B0001846FFF749FA02460B4610461946FFF754
:1011C000ADFA03461946042000F008FA4D4B0122FF
:1011D0001A604B4B0B221A6089E0514B1B69002BA4
:1011E00038D0504B9B68152B34D0474B1A681346A8
:1011F0009B001A44454B1B68DA62434B1A6813463E
:101200009B0013441A46414BDA603F4B1A68134661
:101210009B0013441846FFF717FA37A3D3E90023BE
:10122000FEF796FF02460B4638490C6810461946F1
:10123000FFF79CFA03466363334B1B68A3F2826398
:10124000314A1360304B1B68002B03DA2E4B41F2FE
:1012500088321A60324B1B69002B1AD02D4B1A684A
:101260002D4B1B681344642202FB03F32B4A82FBC1
:101270000312DB17D31A1846FFF7E6F902460B46AE
:1012800010461946FFF74AFA03461946042000F0B3
:10129000A5F9244B9B68152B17D11B4B41F28832C3
:1012A0001A60194B1A6813469B001A44174B1B68A7
:1012B000DA62154B1A6813469B0013441A46134B07
:1012C000DA60124B1B6800225A630320FFF76EFAA4
:1012D0000346002B0DD00020FFF7EAFE094B002249
:1012E0001A60074B0C221A6003E000BF02E000BF47
:1012F00000E000BF00BF98BD333333333333E33FE7
:10130000B0000020740100209C000020180500207F
:10131000AC000020BC000020B800002056555555F8
:10132000B4040020A000002080B588B000AF07F111
:10133000100300221A605A609A60DA60454B9B697C
:10134000444A43F010039361424B9B6903F010033E
:10135000FB60FB683F4B9B693E4A43F0200393616F
:101360003C4B9B6903F02003BB60BB68394B9B6916
:10137000384A43F004039361364B9B6903F004033E
:101380007B607B68334B9B69324A43F0080393616F
:10139000304B9B6903F008033B603B6800224FF42D
:1013A000A4612D4801F00BFA00224FF487612B480D
:1013B00001F005FA4FF400533B61294B7B61002398
:1013C000BB6107F110031946264801F05DF81323AD
:1013D0003B6100237B610023BB6107F110031946C9
:1013E0001D4801F051F84FF4A4633B6101237B6178
:1013F0000023BB610223FB6107F110031946164865
:1014000001F042F801233B6100237B610023BB61B3
:1014100007F110031946114801F036F84FF48763BD
:101420003B6101237B610023BB610223FB6107F168
:1014300010031946094801F027F80022002128204E
:1014400000F0EBFF282001F004F800BF2037BD4674
:1014500080BD00BF0010024000080140000C0140A8
:10146000000011100010014080B500AF00F09CFE9C
:1014700000F02EF8FFF758FF00F008FE00F026FA03
:1014800000F0D6F9104801F057FE00210F4801F096
:10149000FDFE0C21002000F0FBFA0C21012000F0E1
:1014A000F7FA0C21022000F0F3FAFFF7B7FCFFF780
:1014B00023FE0020FFF75AFA0120FFF757FA022017
:1014C000FFF754FAF1E700BFD00400201805002010
:1014D00080B590B000AF07F118032822002118460C
:1014E00002F010FF3B1D00221A605A609A60DA6019
:1014F0001A610223BB610123BB621023FB6202233A
:101500007B630023BB634FF46013FB6307F1180395
:10151000184601F0A7F90346002B01D000F031F87E
:101520000F237B600223BB600023FB604FF48063CA
:101530003B6100237B613B1D0221184601F014FC36
:101540000346002B01D000F01CF800BF4037BD4619
:1015500080BD80B582B000AF786000F057F8002001
:10156000FFF74EF90120FFF74BF90220FFF748F98A
:101570000320FFF745F900F009F800BF0837BD4622
:1015800080BD80B400AF72B600BFFEE780B400AF8C
:10159000104B1B780133DAB20E4B1A700E4B1B68DE
:1015A000002B13D00C4B1B7B002B0FD10A4B5B681D
:1015B000002B04D0084B5B68013B074A5360064B85
:1015C0005B68002B02D1044B01221A7300BFBD4699
:1015D00080BC7047980400207801002080B483B05C
:1015E00000AF7860396007497B683A6841F823208A
:1015F000054A7B68002142F8231000BF0C37BD4626
:1016000080BC70479C040020B404002080B400AF6C
:10161000314B1B68002B0BDD2F4B1B68013B2E4A07
:1016200013602D4B1B68002B02DC2C4B01221A602F
:10163000294B5B68002B0BDD274B5B68013B264A7F
:101640005360254B5B68002B02DC244B01225A605F
:10165000214B9B68002B0BDD1F4B9B68013B1E4AF7
:1016600093601D4B9B68002B02DC1C4B01229A608F
:10167000194BDB68002B0BDD174BDB68013B164A6F
:10168000D360154BDB68002B02DC144B0122DA60BF
:10169000114B1B69002B0BDD0F4B1B69013B0E4AE5
:1016A00013610D4B1B69002B02DC0C4B01221A61EC
:1016B000094B5B69002B0BDD074B5B69013B064A5D
:1016C0005361054B5B69002B02DC044B01225A611C
:1016D00000BFBD4680BC70479C040020B4040020BD
:1016E00080B485B000AF154B9B69144A43F00103E9
:1016F0009361124B9B6903F00103BB60BB680F4B06
:10170000DB690E4A43F08053D3610C4BDB6903F075
:1017100080537B607B680A4B5B68FB60FB6823F04F
:10172000E063FB60FB6843F00073FB60044AFB6806
:10173000536000BF1437BD4680BC704700100240A4
:101740000000014080B400AFFEE780B400AFFEE7C8
:1017500080B400AFFEE780B400AFFEE780B400AF16
:10176000FEE780B400AF00BFBD4680BC704780B4C8
:1017700000AF00BFBD4680BC704780B400AF00BF63
:10178000BD4680BC704780B500AF00F053FD00BF80
:1017900080BD000080B500AF024801F019FE00BF17
:1017A00080BD00BFD004002080B500AF4FF40050D2
:1017B00001F036F800BF80BD80B586B000AF78601C
:1017C000144A154BD31A7B617B693B61134B1B6831
:1017D000002B02D1114B124A1A60104B1A687B6819
:1017E00013443A699A4207D202F094FD03460C2250
:1017F0001A604FF0FF3309E0084B1B68FB60074B92
:101800001A687B681344054A1360FB68184618374A
:10181000BD4680BD0050002000040000CC04002024
:101820005807002080B400AF00BFBD4680BC7047A1
:1018300080B586B000AF07F1080300221A605A6035
:101840009A60DA603B4600221A605A601E4B4FF0E5
:1018500080421A601C4B40F2FF325A601A4B002241
:101860009A60194B4FF41C72DA60174B00221A6110
:10187000154B00229A61144801F00EFC0346002B20
:1018800001D0FFF77EFE4FF48053BB6007F10803E1
:1018900019460D4801F062FF0346002B01D0FFF707
:1018A00070FE00233B6000237B603B4619460648E0
:1018B00002F0E0FA0346002B01D0FFF762FE00BF02
:1018C0001837BD4680BD00BFD004002080B58EB063
:1018D00000AF07F1280300221A605A609A60DA60AC
:1018E00007F1200300221A605A603B1D00221A6093
:1018F0005A609A60DA601A615A619A612D4B2E4AD9
:101900001A602C4B40F2FF325A602A4B00229A6038
:10191000284B4FF41C72DA60264B00221A61254BCB
:1019200000229A61234801F0B7FB0346002B01D047
:10193000FFF727FE4FF48053BB6207F128031946D7
:101940001C4801F00BFF0346002B01D0FFF719FEE6
:10195000184801F043FC0346002B01D0FFF711FEAD
:1019600000233B6200237B6207F1200319461148E4
:1019700002F080FA0346002B01D0FFF702FE60233D
:101980007B600023BB600023FB6000237B613B1D69
:1019900000221946074801F023FE0346002B01D020
:1019A000FFF7EFFD034800F041F800BF3837BD46B0
:1019B00080BD00BF180500200004004080B584B041
:1019C00000AF78607B681B68B3F1804F14D1154B72
:1019D000DB69144A43F00103D361124BDB6903F066
:1019E0000103FB60FB68002200211C2000F015FDB4
:1019F0001C2000F02EFD10E07B681B680A4A934211
:101A00000BD1084BDB69074A43F00203D361054B56
:101A1000DB6903F00203BB60BB6800BF1037BD4643
:101A200080BD00BF001002400004004080B588B0B7
:101A300000AF786007F1100300221A605A609A60C4
:101A4000DA607B681B680F4A934217D10E4B9B6983
:101A50000D4A43F0040393610B4B9B6903F00403AD
:101A6000FB60FB6840233B6102237B610223FB6137
:101A700007F110031946054800F006FD00BF2037A6
:101A8000BD4680BD00040040001002400008014037
:101A900080B582B000AF786039603B680C3B0B2B9F
:101AA00000F2988001A252F823F000BF971B0008B3
:101AB000D51B0008D51B0008D51B0008D51B000846
:101AC000D51B0008D51B0008D51B0008D51B000836
:101AD000DD1A00081B1B0008591B00087B685B000F
:101AE0003F4A52F823007B685B003E4A32F81330CD
:101AF0000122194600F063FE7B685B000133384A1F
:101B000052F823007B685B000133364A32F8133009
:101B10000022194600F053FE5DE07B685B00304A0E
:101B200052F823007B685B002E4A32F81330012202
:101B3000194600F044FE7B685B000133284A52F8E6
:101B400023007B685B000133264A32F81330012200
:101B5000194600F034FE3EE07B685B00204A52F8F4
:101B600023007B685B001F4A32F8133000221946BD
:101B700000F025FE7B685B000133194A52F8230010
:101B80007B685B000133174A32F813300122194693
:101B900000F015FE1FE07B685B00114A52F823003D
:101BA0007B685B000F4A32F813300022194600F0C0
:101BB00006FE7B685B000133094A52F823007B680C
:101BC0005B000133074A32F813300022194600F057
:101BD000F6FD00E000BF00BF0837BD4680BD00BF76
:101BE000D4000020C800002080B582B000AF78602B
:101BF00039603B68172B47D03B68172B63DC3B6889
:101C0000152B03D03B68162B1FD05CE07B685B0074
:101C10002F4A52F823207B685B002E4931F813309D
:101C20001946104600F0E3FD7B685B000133284A4B
:101C300052F823007B685B000133264A32F81330E8
:101C40000022194600F0BBFD3EE07B685B00204AA5
:101C500052F823207B685B001E4931F81330194687
:101C6000104600F0C4FD7B685B000133184A52F84F
:101C700023207B685B000133164931F81330194685
:101C8000104600F0B4FD1FE07B685B00104A52F87C
:101C900023007B685B000F4A32F81330002219469C
:101CA00000F08DFD7B685B000133094A52F8232068
:101CB0007B685B000133074931F813301946104641
:101CC00000F095FD00E000BF00BF0837BD4680BDB5
:101CD000D4000020C800002080B588B000AFF860B4
:101CE000B9607A603B603B68152B06D03B68162BC9
:101CF00001D1A04B02E0A04B00E0A04BFB61BB6A0E
:101D0000152B06D0BB6A162B01D19A4B02E09A4BD9
:101D100000E09A4BBB61FB6A152B01D1974B00E0A9
:101D2000954B7B61FB680B3B172B00F2968101A260
:101D300052F823F0292000085B200008B11F00089A
:101D40005B2000085B2000085B2000085B20000887
:101D50005B2000085B2000085B2000083D1E000897
:101D60009D1E0008FD1E00085B2000085B20000887
:101D70005B2000085B2000085B2000085B20000857
:101D80005B2000085D1F00085B200008951D00080F
:101D900041200008BB68002B00F061817B68002BAC
:101DA00000F05D811B227649764802F08BFA0346EB
:101DB0009AB264237349744802F019F91B227349DB
:101DC000704802F07FFA03469AB264236D496E4868
:101DD00002F00DF9BB68FA696D496A4802F072FABF
:101DE00003469AB264236749674802F000F97B68AA
:101DF000BA696849634802F065FA03469AB26423F7
:101E00006049614802F0F3F83B6B0B2B40F02781EF
:101E10003B68172B02D1BB68023300E0BB683B6113
:101E20003B697A695C49574802F04CFA03469AB21A
:101E300064235449544802F0DAF810E11B22504957
:101E4000504802F03FFA03469AB264234D494E4887
:101E500002F0CDF81B224D494A4802F033FA0346FE
:101E60009AB264234749484802F0C1F84B494548B3
:101E700002F028FA03469AB264234249424802F02B
:101E8000B6F8BA6846493F4802F01CFA03469AB2CF
:101E900064233C493C4802F0AAF8E1E01B2238499F
:101EA000384802F00FFA03469AB26423354936489F
:101EB00002F09DF81B223549324802F003FA03462E
:101EC0009AB264232F49304802F091F833492D48E3
:101ED00002F0F8F903469AB264232A492A4802F02C
:101EE00086F8BA682F49274802F0ECF903469AB2FF
:101EF00064232449244802F07AF8B1E01B222049E7
:101F0000204802F0DFF903469AB264231D491E48B7
:101F100002F06DF81B221D491A4802F0D3F903465E
:101F20009AB264231749184802F061F81B49154812
:101F300002F0C8F903469AB264231249124802F02B
:101F400056F8BA6818490F4802F0BCF903469AB22D
:101F500064230C490C4802F04AF881E0134909480F
:101F600002F0B0F903469AB264230649064802F02B
:101F70003EF875E0404C0008484C0008504C000802
:101F8000544C000860050020C40500205C4C00088B
:101F9000644C0008804C00089C4C0008BC4C0008B5
:101FA000C84C0008D44C0008E44C0008F44C00086D
:101FB0001B222D492D4802F085F903469AB264236D
:101FC0002A492B4802F013F81B222A49274802F01D
:101FD00079F903469AB264232449254802F007F8A8
:101FE0002549224802F06EF903469AB264231F493C
:101FF0001F4801F0FCFFFA6920491C4802F062F911
:1020000003469AB264231949194801F0F0FFBA69EE
:102010001B49164802F056F903469AB26423134945
:10202000134801F0E4FF1BE01649104802F04AF99A
:1020300003469AB264230D490D4801F0D8FF0FE022
:10204000BA681149094802F03DF903469AB264237F
:102050000649074801F0CBFF02E000BF00E000BFE7
:1020600000BF2037BD4680BD544C000860050020ED
:10207000C40500205C4C0008004D00080C4D000811
:102080001C4D00082C4D0008384D000880B500AFED
:10209000114B124A1A60104B4FF4E1325A600E4B4A
:1020A00000229A600C4B0022DA600B4B00221A616E
:1020B000094B0C225A61084B00229A61064B002200
:1020C000DA61054801F046FF0346002B01D0FFF717
:1020D00058FA00BF80BD00BFC40500200044004086
:1020E00080B588B000AF786007F1100300221A6055
:1020F0005A609A60DA607B681B68154A934223D164
:10210000144BDB69134A43F40033D361114BDB6991
:1021100003F40033FB60FB680E4B9B690D4A43F0F0
:10212000040393610B4B9B6903F00403BB60BB6822
:102130000C233B6102237B610223FB6107F1100347
:102140001946054800F0A0F900BF2037BD4680BD04
:10215000004400400010024000080140FFF762FB0D
:102160000B480C490C4A002302E0D458C4500433F5
:10217000C4188C42F9D3094A094C002301E01360CA
:102180000432A242FBD302F0CBF8FFF76DF970479F
:102190000000002044010020AC4D00084401002054
:1021A00054070020FEE7000080B500AF084B1B6815
:1021B000074A43F010031360032000F023F90020C6
:1021C00000F008F8FFF78CFA0023184680BD00BF26
:1021D0000020024080B582B000AF7860124B1A68D0
:1021E000124B1B7819464FF47A73B3FBF1F3B2FB31
:1021F000F3F3184600F03BF90346002B01D001230E
:102200000EE07B680F2B0AD8002279684FF0FF3070
:1022100000F003F9064A7B681360002300E0012305
:1022200018460837BD4680BDC4000020F0000020DD
:10223000EC00002080B400AF054B1B781A46054B1C
:102240001B681344034A136000BFBD4680BC70473F
:10225000F00000200806002080B400AF024B1B688D
:102260001846BD4680BC70470806002080B485B083
:1022700000AF78607B6803F00703FB600C4BDB6802
:10228000BB60BA684FF6FF031340BB60FB681A02DD
:10229000BB68134343F0BF6343F40033BB60044A9D
:1022A000BB68D36000BF1437BD4680BC704700BF19
:1022B00000ED00E080B400AF044BDB681B0A03F0C4
:1022C00007031846BD4680BC704700BF00ED00E024
:1022D00080B483B000AF0346FB7197F90730002B41
:1022E0000BDBFB7903F01F02064997F907305B0906
:1022F000012000FA02F241F8232000BF0C37BD464E
:1023000080BC704700E100E080B483B000AF0346BA
:102310003960FB7197F90730002B0ADB3B68DAB2B2
:102320000C4997F907301201D2B20B4483F800230D
:102330000AE03B68DAB20849FB7903F00F03043B7B
:102340001201D2B20B441A7600BF0C37BD4680BCD6
:10235000704700BF00E100E000ED00E080B489B00C
:1023600000AFF860B9607A60FB6803F00703FB61B7
:10237000FB69C3F10703042B28BF0423BB61FB697E
:102380000433062B02D9FB69033B00E000237B6189
:102390004FF0FF32BB6902FA03F3DA43BB681A401D
:1023A0007B699A404FF0FF317B6901FA03F3D9430F
:1023B0007B680B40134318462437BD4680BC7047EA
:1023C00080B582B000AF78607B68013BB3F1807F5D
:1023D00001D301230FE00A4A7B68013B53600F21C0
:1023E0004FF0FF30FFF790FF054B00229A60044B3F
:1023F00007221A60002318460837BD4680BD00BF7B
:1024000010E000E080B582B000AF78607868FFF738
:102410002DFF00BF0837BD4680BD80B586B000AF38
:102420000346B9607A60FB7300237B61FFF742FFCC
:1024300078617A68B9687869FFF790FF024697F982
:102440000F3011461846FFF75FFF00BF1837BD4633
:1024500080BD80B582B000AF0346FB7197F90730AD
:102460001846FFF735FF00BF0837BD4680BD80B571
:1024700082B000AF78607868FFF7A2FF0346184685
:102480000837BD4680BD000080B48BB000AF7860D7
:10249000396000237B6200233B6269E101227B6A91
:1024A00002FA03F3FB613B681B68FA691340BB61E6
:1024B000BA69FB699A4240F058813B685B689A4A66
:1024C00093425ED0984A934275D8984A934258D026
:1024D000964A93426FD8964A934252D0944A934276
:1024E00069D8944A93424CD0924A934263D8924A14
:1024F000934246D0904A93425DD8122B2AD8122B91
:1025000059D801A252F823F0832500085D25000860
:102510006F250008B1250008B7250008B725000879
:10252000B7250008B7250008B7250008B72500081B
:10253000B7250008B7250008B7250008B72500080B
:10254000B7250008B7250008B7250008652500084D
:1025500079250008794A934213D02CE03B68DB6868
:102560003B6229E03B68DB6804333B6224E03B6864
:10257000DB6808333B621FE03B68DB680C333B627F
:102580001AE03B689B68002B02D104233B6213E0F6
:102590003B689B68012B05D108233B627B68FA6985
:1025A0001A6109E008233B627B68FA695A6103E01B
:1025B00000233B6200E000BFBB69FF2B01D87B68B2
:1025C00001E07B6804337B61BB69FF2B02D87B6A27
:1025D0009B0002E07B6A083B9B003B617B691A68B9
:1025E0000F213B6901FA03F3DB431A40396A3B6967
:1025F00001FA03F31A437B691A603B685B6803F0D6
:102600008053002B00F0B1804D4B9B694C4A43F046
:10261000010393614A4B9B6903F00103BB60BB68F4
:10262000484A7B6A9B08023352F82330FB607B6A7E
:1026300003F003039B000F2202FA03F3DB43FA6863
:102640001340FB607B68404A934213D07B683F4A4B
:1026500093420DD07B683E4A934207D07B683D4A47
:10266000934201D1032306E0042304E0022302E0A5
:10267000012300E000237A6A02F0030292009340F3
:10268000FA681343FB602F497B6A9B080233FA68A0
:1026900041F823203B685B6803F48033002B06D0AD
:1026A0002D4B1A682C49BB6913430B6006E02A4B7B
:1026B0001A68BB69DB43284913400B603B685B68C1
:1026C00003F40033002B06D0234B5A682249BB6920
:1026D00013434B6006E0204B5A68BB69DB431E493D
:1026E00013404B603B685B6803F48013002B06D0FB
:1026F000194B9A681849BB6913438B6006E0164B67
:102700009A68BB69DB43144913408B603B685B6884
:1027100003F40013002B21D00F4BDA680E49BB697C
:102720001343CB6021E000BF0000321000003110E5
:1027300000002210000021100000121000001110F3
:10274000001002400000014000080140000C014060
:102750000010014000140140000401400B4BDA68F6
:10276000BB69DB4309491340CB607B6A01337B6261
:102770003B681A687B6A22FA03F3002B7FF48EAE63
:1027800000BF00BF2C37BD4680BC7047000401402D
:1027900080B485B000AF78600B467B807B689A6818
:1027A0007B881340002B02D00123FB7301E0002340
:1027B000FB73FB7B18461437BD4680BC704780B462
:1027C00083B000AF78600B467B8013467B707B78CC
:1027D000002B03D07A887B681A6103E07B881A0497
:1027E0007B681A6100BF0C37BD4680BC704780B45F
:1027F00085B000AF78600B467B807B68DB68FB6050
:102800007A88FB6813401A04FB68D9437B880B4025
:102810001A437B681A6100BF1437BD4680BC7047FD
:1028200080B582B000AF0346FB80084B5A69FB8835
:102830001340002B06D0054AFB885361FB881846DD
:1028400000F006F800BF0837BD4680BD0004014017
:1028500080B483B000AF0346FB8000BF0C37BD4699
:1028600080BC704780B586B000AF78607B68002B75
:1028700001D1012372E27B681B6803F00103002B86
:1028800000F08780924B5B6803F00C03042B0CD0A4
:102890008F4B5B6803F00C03082B12D18C4B5B68E9
:1028A00003F48033B3F5803F0BD1894B1B6803F4ED
:1028B0000033002B6CD07B685B68002B68D1012350
:1028C0004CE27B685B68B3F5803F06D1804B1B68A8
:1028D0007F4A43F4803313602EE07B685B68002BF3
:1028E0000CD17B4B1B687A4A23F480331360784BFE
:1028F0001B68774A23F4802313601DE07B685B68C4
:10290000B3F5A02F0CD1724B1B68714A43F480239E
:1029100013606F4B1B686E4A43F4803313600BE007
:102920006B4B1B686A4A23F480331360684B1B6847
:10293000674A23F4802313607B685B68002B13D005
:10294000FFF78AFC386108E0FFF786FC02463B6926
:10295000D31A642B01D9032300E25D4B1B6803F4F7
:102960000033002BF0D014E0FFF776FC386108E06C
:10297000FFF772FC02463B69D31A642B01D903238B
:10298000ECE1534B1B6803F40033002BF0D100E063
:1029900000BF7B681B6803F00203002B63D04C4B25
:1029A0005B6803F00C03002B0BD0494B5B6803F012
:1029B0000C03082B1CD1464B5B6803F48033002BBF
:1029C00016D1434B1B6803F00203002B05D07B6834
:1029D0001B69012B01D00123C0E13D4B1B6823F093
:1029E000F8027B685B69DB00394913430B603AE00E
:1029F0007B681B69002B20D0364B01221A60FFF741
:102A00002BFC386108E0FFF727FC02463B69D31A2C
:102A1000022B01D90323A1E12D4B1B6803F0020314
:102A2000002BF0D02A4B1B6823F0F8027B685B690F
:102A3000DB00274913430B6015E0264B00221A6088
:102A4000FFF70AFC386108E0FFF706FC02463B6925
:102A5000D31A022B01D9032380E11D4B1B6803F01D
:102A60000203002BF0D17B681B6803F00803002BE6
:102A70003AD07B689B69002B19D0174B01221A6052
:102A8000FFF7EAFB386108E0FFF7E6FB02463B6927
:102A9000D31A022B01D9032360E10D4B5B6A03F0CB
:102AA0000203002BF0D0012000F0D8FA1CE00A4B02
:102AB00000221A60FFF7D0FB38610FE0FFF7CCFB74
:102AC00002463B69D31A022B08D9032346E100BF13
:102AD000001002400000424280044242924B5B6A76
:102AE00003F00203002BE9D17B681B6803F00403A9
:102AF000002B00F0A6800023FB758B4BDB6903F0F5
:102B00008053002B0DD1884BDB69874A43F08053FB
:102B1000D361854BDB6903F08053BB60BB68012345
:102B2000FB75824B1B6803F48073002B18D17F4B1D
:102B30001B687E4A43F480731360FFF78DFB386196
:102B400008E0FFF789FB02463B69D31A642B01D9E1
:102B5000032303E1754B1B6803F48073002BF0D053
:102B60007B68DB68012B06D16F4B1B6A6E4A43F012
:102B7000010313622DE07B68DB68002B0CD16A4BEC
:102B80001B6A694A23F001031362674B1B6A664A9A
:102B900023F0040313621CE07B68DB68052B0CD177
:102BA000614B1B6A604A43F0040313625E4B1B6A6D
:102BB0005D4A43F0010313620BE05B4B1B6A5A4A08
:102BC00023F001031362584B1B6A574A23F0040396
:102BD00013627B68DB68002B15D0FFF73DFB386183
:102BE0000AE0FFF739FB02463B69D31A41F288320B
:102BF000934201D90323B1E04B4B1B6A03F002035C
:102C0000002BEED014E0FFF727FB38610AE0FFF756
:102C100023FB02463B69D31A41F28832934201D921
:102C200003239BE0404B1B6A03F00203002BEED111
:102C3000FB7D012B05D13C4BDB693B4A23F08053E4
:102C4000D3617B68DB69002B00F08780364B5B68C3
:102C500003F00C03082B61D07B68DB69022B46D1A3
:102C6000334B00221A60FFF7F7FA386108E0FFF7EC
:102C7000F3FA02463B69D31A022B01D903236DE014
:102C8000294B1B6803F00073002BF0D17B681B6A93
:102C9000B3F5803F08D1244B5B6823F400327B6896
:102CA0009B68214913434B601F4B5B6823F47412EC
:102CB0007B68196A7B685B6A0B431B4913434B6053
:102CC0001B4B01221A60FFF7C7FA386108E0FFF7D3
:102CD000C3FA02463B69D31A022B01D903233DE014
:102CE000114B1B6803F00073002BF0D035E0104B44
:102CF00000221A60FFF7B0FA386108E0FFF7ACFA7B
:102D000002463B69D31A022B01D9032326E0064B66
:102D10001B6803F00073002BF0D11EE07B68DB69B9
:102D2000012B07D1012319E0001002400070004080
:102D3000600042420B4B5B68FB60FB6803F480322F
:102D40007B681B6A9A4206D1FB6803F470127B68A9
:102D50005B6A9A4201D0012300E00023184618372D
:102D6000BD4680BD0010024080B584B000AF7860E1
:102D700039607B68002B01D10123D0E06A4B1B68CE
:102D800003F007033A689A4210D9674B1B6823F097
:102D9000070265493B6813430B60634B1B6803F0F4
:102DA00007033A689A4201D00123B8E07B681B68A8
:102DB00003F00203002B20D07B681B6803F00403A0
:102DC000002B05D0594B5B68584A43F4E0635360CD
:102DD0007B681B6803F00803002B05D0534B5B682E
:102DE000524A43F460535360504B5B6823F0F00247
:102DF0007B689B684D4913434B607B681B6803F0FD
:102E00000103002B40D07B685B68012B07D1474B47
:102E10001B6803F40033002B15D101237FE07B688E
:102E20005B68022B07D1414B1B6803F00073002B3A
:102E300009D1012373E03D4B1B6803F00203002B13
:102E400001D101236BE0394B5B6823F003027B68FF
:102E50005B68364913434B60FFF7FEF9F8600AE000
:102E6000FFF7FAF90246FB68D31A41F2883293421F
:102E700001D9032353E02D4B5B6803F00C027B6800
:102E80005B689B009A42EBD1274B1B6803F007035A
:102E90003A689A4210D2244B1B6823F00702224959
:102EA0003B6813430B60204B1B6803F007033A6831
:102EB0009A4201D0012332E07B681B6803F00403CF
:102EC000002B08D0194B5B6823F4E0627B68DB6859
:102ED000164913434B607B681B6803F00803002B03
:102EE00009D0124B5B6823F460527B681B69DB00DE
:102EF0000E4913434B6000F021F802460B4B5B6810
:102F00001B0903F00F030A49CB5C22FA03F3094AB9
:102F10001360094B1B681846FFF75CF9002318463D
:102F20001037BD4680BD00BF0020024000100240A7
:102F3000584D0008C4000020EC00002090B48AB076
:102F400000AF294B3C1D0FCB84E80F0040F201235A
:102F50003B800023FB610023BB6100237B620023D5
:102F60007B6100233B62214B5B68FB61FB6903F0E3
:102F70000C03042B02D0082B03D02BE01C4B3B622C
:102F80002BE0FB699B0C03F00F0328333B4413F841
:102F9000243C7B61FB6903F48033002B12D0134B7C
:102FA0005B685B0C03F0010328333B4413F8283CB7
:102FB000BB617B690E4A03FB02F2BB69B2FBF3F310
:102FC0007B6204E07B690B4A02FB03F37B627B6A52
:102FD0003B6202E0064B3B6200BF3B6A1846283763
:102FE000BD4690BC704700BF484D0008001002402D
:102FF00000127A0000093D0080B400AF024B1B684C
:103000001846BD4680BC7047C400002080B500AFA4
:10301000FFF7F2FF0246054B5B681B0A03F007034C
:103020000349CB5C22FA03F3184680BD001002402E
:10303000684D000880B500AFFFF7DEFF0246054B84
:103040005B68DB0A03F007030349CB5C22FA03F356
:10305000184680BD00100240684D000880B485B05D
:1030600000AF78600A4B1B680A4AA2FB03235B0A85
:103070007A6802FB03F3FB6000BFFB685A1EFA602C
:10308000002BF9D100BF00BF1437BD4680BC70478C
:10309000C4000020D34D621080B582B000AF7860CC
:1030A0007B68002B01D1012341E07B6893F83D3020
:1030B000DBB2002B06D17B68002283F83C207868C5
:1030C000FEF77CFC7B68022283F83D207B681A684F
:1030D0007B6804331946104600F028FC7B68012207
:1030E00083F846207B68012283F83E207B6801221A
:1030F00083F83F207B68012283F840207B6801220F
:1031000083F841207B68012283F842207B680122FA
:1031100083F843207B68012283F844207B680122E6
:1031200083F845207B68012283F83D200023184660
:103130000837BD4680BD000080B485B000AF786020
:103140007B6893F83D30DBB2012B01D001233AE0DC
:103150007B68022283F83D207B681B68DA687B6805
:103160001B6842F00102DA607B681B68184A9342D0
:103170000ED07B681B68B3F1804F09D07B681B6859
:10318000144A934204D07B681B68134A934211D1BE
:103190007B681B689B6803F00703FB60FB68062BDA
:1031A00010D07B681B681A687B681B6842F00102BC
:1031B0001A6007E07B681B681A687B681B6842F02E
:1031C00001021A60002318461437BD4680BC7047C0
:1031D000002C0140000400400008004080B582B08F
:1031E00000AF78607B68002B01D1012341E07B6850
:1031F00093F83D30DBB2002B06D17B68002283F8C8
:103200003C20786800F039F87B68022283F83D2082
:103210007B681A687B6804331946104600F086FB09
:103220007B68012283F846207B68012283F83E20D8
:103230007B68012283F83F207B68012283F84020CD
:103240007B68012283F841207B68012283F84220B9
:103250007B68012283F843207B68012283F84420A5
:103260007B68012283F845207B68012283F83D209A
:10327000002318460837BD4680BD80B483B000AF38
:10328000786000BF0C37BD4680BC704780B584B005
:1032900000AF786039603B68002B09D17B6893F8F8
:1032A0003E30DBB2012B14BF01230023DBB222E04E
:1032B0003B68042B09D17B6893F83F30DBB2012BCC
:1032C00014BF01230023DBB215E03B68082B09D1B2
:1032D0007B6893F84030DBB2012B14BF012300233D
:1032E000DBB208E07B6893F84130DBB2012B14BFFE
:1032F00001230023DBB2002B01D001235EE03B68F9
:10330000002B04D17B68022283F83E2013E03B6847
:10331000042B04D17B68022283F83F200BE03B683A
:10332000082B04D17B68022283F8402003E07B68ED
:10333000022283F841207B681B6801223968184605
:1033400000F074FD7B681B681E4A934207D17B68BE
:103350001B685A6C7B681B6842F400425A647B68A5
:103360001B68184A93420ED07B681B68B3F1804FEC
:1033700009D07B681B68144A934204D07B681B68A1
:10338000124A934211D17B681B689B6803F00703C4
:10339000FB60FB68062B10D07B681B681A687B6893
:1033A0001B6842F001021A6007E07B681B681A681C
:1033B0007B681B6842F001021A6000231846103730
:1033C000BD4680BD002C01400004004000080040C4
:1033D00080B582B000AF78607B681B681B6903F022
:1033E0000203022B22D17B681B68DB6803F0020317
:1033F000022B1BD17B681B686FF002021A617B688D
:1034000001221A777B681B689B6903F00303002B7A
:1034100003D0786800F06FFA05E0786800F062FA8F
:10342000786800F071FA7B6800221A777B681B6865
:103430001B6903F00403042B22D17B681B68DB6843
:1034400003F00403042B1BD17B681B686FF004029C
:103450001A617B6802221A777B681B689B6903F4F8
:103460004073002B03D0786800F045FA05E07868D7
:1034700000F038FA786800F047FA7B6800221A7783
:103480007B681B681B6903F00803082B22D17B684B
:103490001B68DB6803F00803082B1BD17B681B68E3
:1034A0006FF008021A617B6804221A777B681B6838
:1034B000DB6903F00303002B03D0786800F01BFAEC
:1034C00005E0786800F00EFA786800F01DFA7B6875
:1034D00000221A777B681B681B6903F01003102B0E
:1034E00022D17B681B68DB6803F01003102B1BD113
:1034F0007B681B686FF010021A617B6808221A77DC
:103500007B681B68DB6903F44073002B03D0786889
:1035100000F0F1F905E0786800F0E4F9786800F06F
:10352000F3F97B6800221A777B681B681B6903F03C
:103530000103012B0ED17B681B68DB6803F00103DC
:10354000012B07D17B681B686FF001021A61786854
:10355000FDF7FFFF7B681B681B6903F08003802B6E
:103560000ED17B681B68DB6803F08003802B07D1DA
:103570007B681B686FF080021A61786800F0E1FCDC
:103580007B681B681B6903F04003402B0ED17B68EE
:103590001B68DB6803F04003402B07D17B681B6886
:1035A0006FF040021A61786800F0B7F97B681B6819
:1035B0001B6903F02003202B0ED17B681B68DB689E
:1035C00003F02003202B07D17B681B686FF02002DB
:1035D0001A61786800F0ACFC00BF0837BD4680BDBA
:1035E00080B584B000AFF860B9607A60FB6893F88A
:1035F0003C30012B01D10223ACE0FB68012283F8AF
:103600003C207B680C2B00F29F8001A252F823F033
:10361000453600084937000849370008493700088F
:10362000853600084937000849370008493700083F
:10363000C7360008493700084937000849370008ED
:1036400007370008FB681B68B968184600F0D0F916
:10365000FB681B689A69FB681B6842F008029A6164
:10366000FB681B689A69FB681B6822F004029A6178
:10367000FB681B689969BB681A69FB681B680A4389
:103680009A6162E0FB681B68B968184600F016FA98
:10369000FB681B689A69FB681B6842F400629A61C8
:1036A000FB681B689A69FB681B6822F480629A6158
:1036B000FB681B689969BB681B691A02FB681B6879
:1036C0000A439A6141E0FB681B68B968184600F03C
:1036D0005FFAFB681B68DA69FB681B6842F0080246
:1036E000DA61FB681B68DA69FB681B6822F0040278
:1036F000DA61FB681B68D969BB681A69FB681B68DB
:103700000A43DA6121E0FB681B68B968184600F0DB
:10371000A9FAFB681B68DA69FB681B6842F400625F
:10372000DA61FB681B68DA69FB681B6822F4806257
:10373000DA61FB681B68D969BB681B691A02FB6800
:103740001B680A43DA6100E000BFFB68002283F8CF
:103750003C20002318461037BD4680BD80B584B09C
:1037600000AF786039607B6893F83C30012B01D161
:103770000223B3E07B68012283F83C207B680222AD
:1037800083F83D207B681B689B68FB60FB6823F027
:103790007703FB60FB6823F47F43FB607B681B6857
:1037A000FA689A603B681B68B3F5005F3ED0B3F5DA
:1037B000005F00F28780B3F5805F00F08580B3F58D
:1037C000805F7FD8702B1AD0702B7BD8602B50D0A5
:1037D000602B77D8502B3CD0502B73D8402B58D02F
:1037E000402B6FD8302B64D0302B6BD8202B60D07F
:1037F000202B67D8002B5CD0102B5AD062E07B685E
:1038000018683B6899683B685A683B68DB6800F059
:10381000EEFA7B681B689B68FB60FB6843F07703EC
:10382000FB607B681B68FA689A604EE07B681868EA
:103830003B6899683B685A683B68DB6800F0D7FAD8
:103840007B681B689A687B681B6842F480429A60B8
:103850003BE07B6818683B6859683B68DB681A4640
:1038600000F04EFA7B681B685021184600F0A5FA5C
:103870002BE07B6818683B6859683B68DB681A4630
:1038800000F06CFA7B681B686021184600F095FA1E
:103890001BE07B6818683B6859683B68DB681A4620
:1038A00000F02EFA7B681B684021184600F085FA6C
:1038B0000BE07B681A683B681B681946104600F0ED
:1038C0007CFA02E000BF00E000BF7B68012283F8C1
:1038D0003D207B68002283F83C20002318461037E7
:1038E000BD4680BD80B483B000AF786000BF0C37A8
:1038F000BD4680BC704780B483B000AF786000BF25
:103900000C37BD4680BC704780B483B000AF786090
:1039100000BF0C37BD4680BC704780B483B000AF99
:10392000786000BF0C37BD4680BC704780B485B05E
:1039300000AF786039607B681B68FB607B68294A50
:1039400093420BD07B68B3F1804F07D07B68264A47
:10395000934203D07B68254A934208D1FB6823F049
:103960007003FB603B685B68FA681343FB607B682D
:103970001C4A93420BD07B68B3F1804F07D07B6821
:10398000194A934203D07B68184A934208D1FB68D6
:1039900023F44073FB603B68DB68FA681343FB6009
:1039A000FB6823F080023B685B691343FB607B6824
:1039B000FA681A603B689A687B68DA623B681A6842
:1039C0007B689A627B68074A934203D13B681A6915
:1039D0007B681A637B6801225A6100BF1437BD46B9
:1039E00080BC7047002C01400004004000080040EB
:1039F00080B487B000AF786039607B681B6A23F0C1
:103A000001027B681A627B681B6A7B617B685B686A
:103A10003B617B689B69FB60FB6823F07003FB6084
:103A2000FB6823F00303FB603B681B68FA681343E1
:103A3000FB607B6923F002037B613B689B687A69CA
:103A400013437B617B681C4A93420CD17B6923F052
:103A500008037B613B68DB687A6913437B617B69A0
:103A600023F004037B617B68134A934211D13B69C5
:103A700023F480733B613B6923F400733B613B6833
:103A80005B693A6913433B613B689B693A6913433D
:103A90003B617B683A695A607B68FA689A613B6867
:103AA0005A687B685A637B687A691A6200BF1C3760
:103AB000BD4680BC704700BF002C014080B487B079
:103AC00000AF786039607B681B6A23F010027B6866
:103AD0001A627B681B6A7B617B685B683B617B6801
:103AE0009B69FB60FB6823F4E043FB60FB6823F405
:103AF0004073FB603B681B681B02FA681343FB6062
:103B00007B6923F020037B613B689B681B017A691A
:103B100013437B617B681D4A93420DD17B6923F07F
:103B200080037B613B68DB681B017A6913437B611F
:103B30007B6923F040037B617B68144A934213D175
:103B40003B6923F480633B613B6923F400633B6181
:103B50003B685B699B003A6913433B613B689B6927
:103B60009B003A6913433B617B683A695A607B6802
:103B7000FA689A613B685A687B689A637B687A69DD
:103B80001A6200BF1C37BD4680BC7047002C014044
:103B900080B487B000AF786039607B681B6A23F41B
:103BA00080727B681A627B681B6A7B617B685B68DA
:103BB0003B617B68DB69FB60FB6823F07003FB60A3
:103BC000FB6823F00303FB603B681B68FA68134340
:103BD000FB607B6923F400737B613B689B681B027D
:103BE0007A6913437B617B681D4A93420DD17B69DF
:103BF00023F400637B613B68DB681B027A69134333
:103C00007B617B6923F480637B617B68144A934208
:103C100013D13B6923F480533B613B6923F4005388
:103C20003B613B685B691B013A6913433B613B683D
:103C30009B691B013A6913433B617B683A695A608F
:103C40007B68FA68DA613B685A687B68DA637B688C
:103C50007A691A6200BF1C37BD4680BC704700BF3E
:103C6000002C014080B487B000AF786039607B6879
:103C70001B6A23F480527B681A627B681B6A3B6173
:103C80007B685B687B617B68DB69FB60FB6823F4B6
:103C9000E043FB60FB6823F44073FB603B681B68F8
:103CA0001B02FA681343FB603B6923F400533B613A
:103CB0003B689B681B033A6913433B617B680F4A6F
:103CC000934209D17B6923F480437B613B685B6944
:103CD0009B017A6913437B617B687A695A607B68D0
:103CE000FA68DA613B685A687B681A647B683A69EB
:103CF0001A6200BF1C37BD4680BC7047002C0140D3
:103D000080B487B000AFF860B9607A60FB681B6A66
:103D10007B61FB681B6A23F00102FB681A62FB6887
:103D20009B693B613B6923F0F0033B617B681B01AE
:103D30003A6913433B617B6923F00A037B617A692B
:103D4000BB6813437B61FB683A699A61FB687A69D7
:103D50001A6200BF1C37BD4680BC704780B487B074
:103D600000AFF860B9607A60FB681B6A23F010024C
:103D7000FB681A62FB689B697B61FB681B6A3B619D
:103D80007B6923F470437B617B681B037A6913436F
:103D90007B613B6923F0A0033B61BB681B013A696F
:103DA00013433B61FB687A699A61FB683A691A625E
:103DB00000BF1C37BD4680BC704780B485B000AFE3
:103DC000786039607B689B68FB60FB6823F0700358
:103DD000FB603A68FB68134343F00703FB607B68B2
:103DE000FA689A6000BF1437BD4680BC704780B443
:103DF00087B000AFF860B9607A603B60FB689B6891
:103E00007B617B6923F47F437B613B681A027B689B
:103E10001A43BB6813437A6913437B61FB687A6971
:103E20009A6000BF1C37BD4680BC704780B487B025
:103E300000AFF860B9607A60BB6803F01F0301222D
:103E400002FA03F37B61FB681A6A7B69DB431A4061
:103E5000FB681A62FB681A6ABB6803F01F03796883
:103E600001FA03F31A43FB681A6200BF1C37BD4610
:103E700080BC704780B485B000AF786039607B68E3
:103E800093F83C30012B01D1022346E07B680122EC
:103E900083F83C207B68022283F83D207B681B6806
:103EA0005B68FB607B681B689B68BB60FB6823F0FA
:103EB0007003FB603B681B68FA681343FB607B6818
:103EC0001B68FA685A607B681B68164A93420ED0DA
:103ED0007B681B68B3F1804F09D07B681B68124A6E
:103EE000934204D07B681B68104A93420CD1BB6894
:103EF00023F08003BB603B685B68BA681343BB6018
:103F00007B681B68BA689A607B68012283F83D2051
:103F10007B68002283F83C20002318461437BD46F6
:103F200080BC7047002C01400004004000080040A5
:103F300080B483B000AF786000BF0C37BD4680BC52
:103F4000704780B483B000AF786000BF0C37BD46C7
:103F500080BC704780B582B000AF78607B68002B72
:103F600001D101233FE07B6893F83D30DBB2002BA9
:103F700006D17B68002283F83C207868FEF7B0F811
:103F80007B68242283F83D207B681B68DA687B68A5
:103F90001B6822F40052DA60786800F005F97B684B
:103FA0001B681A697B681B6822F490421A617B685F
:103FB0001B685A697B681B6822F02A025A617B6879
:103FC0001B68DA687B681B6842F40052DA607B6821
:103FD00000221A647B68202283F83D207B6820221F
:103FE00083F83E20002318460837BD4680BD80B5C3
:103FF0008AB002AFF860B9603B601346FB800023D3
:104000007B61FB6893F83D30DBB2202B7CD1BB6831
:10401000002B02D0FB88002B01D1012375E0FB6847
:1040200093F83C30012B01D102236EE0FB680122A2
:1040300083F83C20FB6800221A64FB68212283F885
:104040003D20FEF709F97861FB68FA889A84FB68DD
:10405000FA88DA84FB689B68B3F5805F08D1FB6857
:104060001B69002B04D10023FB61BB68BB6103E02B
:10407000BB68FB610023BB61FB68002283F83C2026
:104080002AE03B6800937B6900228021F86800F0F9
:1040900040F80346002B01D0032336E0FB69002BD8
:1040A0000BD1BB691B881A46FB681B68C2F3080268
:1040B0005A60BB690233BB6107E0FB691A78FB6891
:1040C0001B685A60FB690133FB61FB68DB8C9BB2A8
:1040D000013B9AB2FB68DA84FB68DB8C9BB2002B55
:1040E000CFD13B6800937B6900224021F86800F043
:1040F00010F80346002B01D0032306E0FB682022C2
:1041000083F83D20002300E0022318462037BD46F7
:1041100080BD80B584B000AFF860B9603B601346E5
:10412000FB712CE0BB69B3F1FF3F28D0BB69002BCA
:1041300007D0FEF791F802463B68D31ABA699A4253
:104140001DD2FB681B68DA68FB681B6822F4D0721A
:10415000DA60FB681B685A69FB681B6822F0010281
:104160005A61FB68202283F83D20FB68202283F8F7
:104170003E20FB68002283F83C2003230FE0FB680D
:104180001B681A68BB681340BA689A420CBF0123C7
:104190000023DBB21A46FB799A42C3D000231846AB
:1041A0001037BD4680BD000080B584B000AF786098
:1041B0007B681B681B6923F440517B68DA687B6865
:1041C0001B680A431A617B689A687B681B691A43FB
:1041D0007B685B691343BB607B681B68DB6823F407
:1041E000B05323F00C037A681268B9680B43D360AC
:1041F0007B681B685B6923F440717B689A697B6804
:104200001B680A435A617B681B682C4A934203D19E
:10421000FEF710FFF86002E0FEF7F8FEF860FA68BB
:1042200013469B0013449A001A447B685B689B000A
:10423000B2FBF3F3224AA2FB03235B091901FA68DC
:1042400013469B0013449A001A447B685B689B00EA
:10425000B2FBF3F21A4BA3FB02035B09642000FBE1
:1042600003F3D31A1B013233154AA2FB03235B0964
:1042700003F0F0031944FA6813469B0013449A00B4
:104280001A447B685B689B00B2FBF3F20C4BA3FB08
:1042900002035B09642000FB03F3D31A1B013233D2
:1042A000074AA2FB03235B0903F00F027B681B682C
:1042B0000A449A6000BF1037BD4680BD00380140F7
:1042C0001F85EB510EB46FF0004100B59CB01DABE3
:1042D00002900690079104910848094953F8042B6D
:1042E0000591006802A9019300F08EF90022029B5B
:1042F0001A701CB05DF804EB03B070474001002059
:104300000802FFFF03460244934200D1704703F8BE
:10431000011BF9E7014B1868704700BF40010020FE
:1043200070B500260C4D0D4C641BA410A64209D19B
:1043300000F07AFC00260A4D0A4C641BA410A64229
:1043400005D170BD55F8043B98470136EEE755F8A6
:10435000043B98470136F2E7A44D0008A44D00083D
:10436000A44D0008A84D00087047704738B50546B1
:10437000002940D051F8043C0C1F002BB8BFE418B2
:1043800000F0DCF81C4A136833B9636014602846F7
:10439000BDE8384000F0D8B8A34208D920682118F9
:1043A0008B4201BF19685B6809182160EDE71A4666
:1043B0005B680BB1A342FAD911685018A0420BD127
:1043C00020680144501883421160E0D118685B688E
:1043D000084410605360DAE702D90C232B60D6E75B
:1043E000206821188B4201BF19685B680918216099
:1043F00063605460CBE738BD4C07002070B50E4EAB
:104400000C463168054611B900F0AAFB3060214620
:10441000284600F0A5FB431C0AD0C41C24F003046A
:10442000A04207D0211A284600F09AFB013001D1A2
:104430004FF0FF34204670BD500700202DE9F843AF
:10444000CD1C25F0030508350C2D38BF0C25002D9B
:10445000074601DBA94205D90C2300263B60304604
:10446000BDE8F883DFF8D08000F068F8D8F80030B5
:104470001C465CBB29463846FFF7C0FF431C044678
:1044800055D1D8F800402646002E45D1002C48D002
:1044900023683146384604EB030900F061FB81458F
:1044A0003FD1216838466D1A2946FFF7A7FF013032
:1044B00037D023682B442360D8F80030002B38D045
:1044C0005A68A2422BD100225A600FE02268521B88
:1044D0001FD40B2A17D96119A342256018BF596050
:1044E000636808BFC8F8001062514B60384604F199
:1044F0000B0600F029F826F00706231DF21AAED0AD
:104500009B1BA350ABE7A3426268DDD1C8F8002033
:10451000ECE723466468ACE734467668B4E71346B4
:10452000CCE70C2338463B6000F00EF897E7256097
:10453000DCE75B60FFDE00BF4C0700200148FFF7AF
:1045400013BF00BF480700200148FFF70EBF00BFA0
:10455000480700202DE9F0471F468E688246BE427C
:104560000C4690460B682CD88A8912F4906F26D09E
:104570006569096905EB4505A3EB010905EBD575EF
:104580007B1C4B446D109D4238BF1D46530527D5FB
:104590002946FFF753FF064660B34A46216900F0FB
:1045A000FDFAA38923F4906343F08003A38126617D
:1045B0004E4426603E466561A5EB0905A560BE42F6
:1045C00000D93E4632464146206800F0AFFA00204E
:1045D000A3689B1BA360236833442360BDE8F08776
:1045E0002A4600F0E9FA06460028E0D15046216943
:1045F000FFF7BCFE0C23CAF80030A3894FF0FF3050
:1046000043F04003A381E9E72DE9F04F98468B89F9
:1046100007461B060D4614469DB00ED50B6963B9BF
:104620004021FFF70BFF2860286120B90C233B6075
:104630004FF0FF30D0E040236B610023099320232B
:104640008DF8293030234FF00109CDF80C80DFF8C8
:10465000A0818DF82A3023469A4613F8012B0AB11F
:10466000252AF9D1BAEB040B0BD05B46224629462A
:104670003846FFF76FFF013000F0A980099A5A44CD
:1046800009929AF80030002B00F0A18000234FF02F
:10469000FF32CDE905230AF1010A049307938DF84F
:1046A00053301A935446052214F8011B504800F069
:1046B00067FA049AD8B9D00644BF20238DF8533046
:1046C000110744BF2B238DF853309AF800302A2B62
:1046D00015D0544600204FF00A0C079A214611F8D5
:1046E000013B303B092B4DD9B0B1079214E0A0EB50
:1046F000080309FA03F31343A2460493D2E7039B8A
:10470000191D1B680391002BBBBF5B4242F00202E4
:1047100007930793B8BF049223782E2B0CD16378AC
:104720002A2B34D1039B02341A1D1B680392002BE1
:10473000B8BF4FF0FF330593DFF8B8A0032250460F
:10474000217800F01DFA38B14022049BA0EB0A004A
:10475000824013430134049314F8011B06222648B7
:104760008DF8281000F00CFA002838D0234B1BBB22
:10477000039B073323F0070308330393099B334458
:10478000099368E70C4601200CFB0232A6E70023E0
:104790004FF00A0C194601340593204610F8012BFE
:1047A000303A092A03D9002BC6D00591C4E7044644
:1047B00001230CFB0121F0E703AB00932A463846A6
:1047C0000F4B04A9AFF30080421C0646D6D1AB893B
:1047D0005B063FF52DAF09981DB0BDE8F08F03AB28
:1047E00000932A463846064B04A900F07DF8EBE713
:1047F000704D0008764D00087A4D0008000000005A
:10480000554500082DE9F047164699468A680B6918
:1048100007469342B8BF1346336091F843200C46D5
:10482000DDF820800AB1013333602368990642BF66
:10483000336802333360256815F0060506D104F1AC
:10484000190AE36832689B1AAB422BDC94F84320C8
:10485000131E226818BF0123920630D449463846F9
:1048600004F14302C047013023D02368226903F0DA
:104870000603042B14BF002533684FF0000608BF61
:10488000E56804F11A0408BFED1A54F8123C08BF99
:1048900025EAE5759342C4BF9B1AED18B5421AD1BB
:1048A000002008E00123524649463846C0470130FF
:1048B00003D14FF0FF30BDE8F0870135C1E730206C
:1048C000E11881F843005A1C94F845102244023341
:1048D00082F84310C2E70123224649463846C047C2
:1048E0000130E6D00136D9E72DE9FF470F7E91462A
:1048F000782F80460C469A460C9D01F1430207D85A
:10490000622F0AD8002F00F0D580582F00F0C18008
:1049100004F1420584F842703AE0A7F16303152BD5
:10492000F6D801A151F823F0814900089549000803
:1049300011490008114900081149000811490008EF
:10494000954900081149000811490008114900085B
:10495000114900089B4A0008C1490008554A00084F
:104960001149000811490008BD4A00081149000812
:10497000C149000811490008114900085D4A0008B2
:104980002B681A1D1B682A6004F1420584F8423026
:104990000123A0E020682B68070603F104012960C9
:1049A00001D51E6803E04606FBD5B3F90060002E72
:1049B00003DA2D23764284F843300A23594812E063
:1049C0002B682068191D2960050601D51E6802E0C4
:1049D0004106FBD51E886F2F0CBF08230A235148C0
:1049E000002184F843106568002DA8BF2168A560E8
:1049F000A4BF21F0040121600EB9002D4BD0154653
:104A0000B6FBF3F103FB1167C75D05F8017D37467F
:104A1000BB420E46F4D9082B0BD12368DE0708D51C
:104A2000236961689942DEBF302305F8013C05F136
:104A3000FF35521B22614B4621464046CDF800A06F
:104A400003AAFFF7DFFE01304AD14FF0FF3004B078
:104A5000BDE8F087236843F02003236078273248BD
:104A600084F84570236829681F0651F8046B02D446
:104A70005F0648BFB6B2DF0748BF43F02003296096
:104A800048BF23601EB9236823F02003236010234E
:104A9000A6E72448E4E71546BDE72B682668181DFD
:104AA0006169286035061B6801D5196002E070064F
:104AB000FBD51980002315462361BCE72B68002134
:104AC0001A1D2A601D686268284600F059F808B16E
:104AD000401B606063682361002384F84330AAE7C9
:104AE0002A46494640462369D0470130ADD0236865
:104AF0009B0713D4E068039B9842B8BF1846A6E70B
:104B00000123324649464046D04701309DD0013509
:104B1000E36803995B1AAB42F2DCEBE7002504F192
:104B20001906F5E7814D0008924D0008884210B53E
:104B300001EB020402D98442234607D8431EA14256
:104B400008D011F8012B03F8012FF8E701460244C1
:104B50008A4200D110BD13F8014D02F8014DF7E76C
:104B600038B50023054D044608462B60FCF724FEAB
:104B7000431C02D12B6803B1236038BD44070020D9
:104B8000034610B5C9B202449342184601D1002031
:104B900003E0047801338C42F6D110BD0A449142FF
:104BA00000F1FF3300D1704710B511F8014B91426D
:104BB00003F8014FF9D110BD2DE9F04180461446AC
:104BC0000E4621B91146BDE8F041FFF737BC2AB9BE
:104BD000FFF7CCFB25462846BDE8F08100F01BF826
:104BE0008442074602D8B4EB500F12D82146404603
:104BF000FFF724FC05460028EDD0BC422246314692
:104C000028BF3A46FFF7CAFF31464046FFF7AEFBE2
:104C1000E1E73546DFE751F8043C181F002BBCBF25
:104C20000B58C01870470000F8B500BFF8BC08BCAE
:104C30009E467047F8B500BFF8BC08BC9E4670475A
:104C4000414D424552000000475245454E0000008C
:104C50005245440025635B324A00000025635B3007
:104C60003B3048004C616E6520303A2025730A0DB8
:104C7000436F756E74646F776E3A2025640A0D0079
:104C80004C616E6520313A2025730A0D436F756EB5
:104C900074646F776E3A2025640A0D0050656420B5
:104CA0006C696768743A2025730A0D436F756E74DA
:104CB000646F776E3A2025640A0D00002154554E2A
:104CC000494E47230A0D0000215245443D256423E7
:104CD0000A0D000021414D4245523D2564230A0D35
:104CE0000000000021475245454E3D2564230A0D32
:104CF00000000000215341564544230A0D000000E6
:104D0000214D414E55414C230A0D00004C616E650A
:104D100020303A2025730A0D000000004C616E65BA
:104D200020313A2025730A0D00000000214155541E
:104D30004F230A0D00000000436F756E74646F7797
:104D40006E3A2025640A0D000203040506070809CF
:104D50000A0B0C0D0E0F10100000000000000000E8
:104D60000102030406070809000000000102030411
:104D7000232D302B2000686C4C0065666745464744
:104D800000303132333435363738394142434445C7
:104D90004600303132333435363738396162636436
:044DA0006566000044
:044DA40035010008CD
:044DA80011010008ED
:104DAC000008014000080140000C014000080140CF
:104DBC0002001000010001000100000000000000D2
:104DCC0000000000000000000100000000000000D6
:104DDC0000000000000000000100000000000000C6
:104DEC0000000000000000000100000000000000B6
:104DFC000000000000000000F401000000000000B2
:104E0C00000000000000000015000000170000006A
:104E1C000C00000015000000150000001700000039
:104E2C00160000001700000016000000150000001E
:104E3C0015000000000000000400000088130000B2
:104E4C000100000001000000010000000B00000048
:104E5C00010000000500000002000000030000003B
:104E6C00881300000024F400000408002000100047
:104E7C000004000100080140000C0140000C01403E
:104E8C00000C0140000C0140000801401000000023
:104E9C0001000000000000000C0600207406002039
:104EAC00DC060020000000000000000000000000F4
:104EBC0000000000000000000000000000000000E6
:104ECC0000000000000000000000000000000000D6
:104EDC0000000000000000000000000000000000C6
:044EEC00F4000020AE
:040000050800215D71
:00000001FF
